{
  "_format": "hh-sol-artifact-1",
  "contractName": "Genesis",
  "sourceName": "src/contracts/Genesis.sol",
  "abi": [
    {
      "inputs": [
        {
          "internalType": "uint256",
          "name": "_projectTax",
          "type": "uint256"
        }
      ],
      "stateMutability": "nonpayable",
      "type": "constructor"
    },
    {
      "anonymous": false,
      "inputs": [
        {
          "indexed": false,
          "internalType": "uint256",
          "name": "id",
          "type": "uint256"
        },
        {
          "indexed": false,
          "internalType": "string",
          "name": "actionType",
          "type": "string"
        },
        {
          "indexed": true,
          "internalType": "address",
          "name": "executor",
          "type": "address"
        },
        {
          "indexed": false,
          "internalType": "uint256",
          "name": "timestamp",
          "type": "uint256"
        }
      ],
      "name": "Action",
      "type": "event"
    },
    {
      "inputs": [
        {
          "internalType": "uint256",
          "name": "id",
          "type": "uint256"
        }
      ],
      "name": "backProject",
      "outputs": [
        {
          "internalType": "bool",
          "name": "",
          "type": "bool"
        }
      ],
      "stateMutability": "payable",
      "type": "function"
    },
    {
      "inputs": [],
      "name": "balance",
      "outputs": [
        {
          "internalType": "uint256",
          "name": "",
          "type": "uint256"
        }
      ],
      "stateMutability": "view",
      "type": "function"
    },
    {
      "inputs": [
        {
          "internalType": "uint256",
          "name": "productId",
          "type": "uint256"
        }
      ],
      "name": "buyProduct",
      "outputs": [],
      "stateMutability": "payable",
      "type": "function"
    },
    {
      "inputs": [
        {
          "internalType": "uint256",
          "name": "_taxPct",
          "type": "uint256"
        }
      ],
      "name": "changeTax",
      "outputs": [],
      "stateMutability": "nonpayable",
      "type": "function"
    },
    {
      "inputs": [
        {
          "internalType": "string",
          "name": "title",
          "type": "string"
        },
        {
          "internalType": "string",
          "name": "description",
          "type": "string"
        },
        {
          "internalType": "string",
          "name": "imageURL",
          "type": "string"
        },
        {
          "internalType": "uint256",
          "name": "cost",
          "type": "uint256"
        },
        {
          "internalType": "uint256",
          "name": "expiresAt",
          "type": "uint256"
        }
      ],
      "name": "createProject",
      "outputs": [
        {
          "internalType": "bool",
          "name": "",
          "type": "bool"
        }
      ],
      "stateMutability": "nonpayable",
      "type": "function"
    },
    {
      "inputs": [
        {
          "internalType": "uint256",
          "name": "id",
          "type": "uint256"
        }
      ],
      "name": "deleteProject",
      "outputs": [
        {
          "internalType": "bool",
          "name": "",
          "type": "bool"
        }
      ],
      "stateMutability": "nonpayable",
      "type": "function"
    },
    {
      "inputs": [
        {
          "internalType": "uint256",
          "name": "id",
          "type": "uint256"
        }
      ],
      "name": "getBackers",
      "outputs": [
        {
          "components": [
            {
              "internalType": "address",
              "name": "owner",
              "type": "address"
            },
            {
              "internalType": "uint256",
              "name": "contribution",
              "type": "uint256"
            },
            {
              "internalType": "uint256",
              "name": "timestamp",
              "type": "uint256"
            },
            {
              "internalType": "bool",
              "name": "refunded",
              "type": "bool"
            }
          ],
          "internalType": "struct Genesis.backerStruct[]",
          "name": "",
          "type": "tuple[]"
        }
      ],
      "stateMutability": "view",
      "type": "function"
    },
    {
      "inputs": [
        {
          "internalType": "uint256",
          "name": "id",
          "type": "uint256"
        }
      ],
      "name": "getProduct",
      "outputs": [
        {
          "internalType": "string",
          "name": "",
          "type": "string"
        },
        {
          "internalType": "uint256",
          "name": "",
          "type": "uint256"
        }
      ],
      "stateMutability": "view",
      "type": "function"
    },
    {
      "inputs": [
        {
          "internalType": "uint256",
          "name": "id",
          "type": "uint256"
        }
      ],
      "name": "getProject",
      "outputs": [
        {
          "components": [
            {
              "internalType": "uint256",
              "name": "id",
              "type": "uint256"
            },
            {
              "internalType": "address",
              "name": "owner",
              "type": "address"
            },
            {
              "internalType": "string",
              "name": "title",
              "type": "string"
            },
            {
              "internalType": "string",
              "name": "description",
              "type": "string"
            },
            {
              "internalType": "string",
              "name": "imageURL",
              "type": "string"
            },
            {
              "internalType": "uint256",
              "name": "cost",
              "type": "uint256"
            },
            {
              "internalType": "uint256",
              "name": "raised",
              "type": "uint256"
            },
            {
              "internalType": "uint256",
              "name": "timestamp",
              "type": "uint256"
            },
            {
              "internalType": "uint256",
              "name": "expiresAt",
              "type": "uint256"
            },
            {
              "internalType": "uint256",
              "name": "backers",
              "type": "uint256"
            },
            {
              "internalType": "enum Genesis.statusEnum",
              "name": "status",
              "type": "uint8"
            }
          ],
          "internalType": "struct Genesis.projectStruct",
          "name": "",
          "type": "tuple"
        }
      ],
      "stateMutability": "view",
      "type": "function"
    },
    {
      "inputs": [],
      "name": "getProjects",
      "outputs": [
        {
          "components": [
            {
              "internalType": "uint256",
              "name": "id",
              "type": "uint256"
            },
            {
              "internalType": "address",
              "name": "owner",
              "type": "address"
            },
            {
              "internalType": "string",
              "name": "title",
              "type": "string"
            },
            {
              "internalType": "string",
              "name": "description",
              "type": "string"
            },
            {
              "internalType": "string",
              "name": "imageURL",
              "type": "string"
            },
            {
              "internalType": "uint256",
              "name": "cost",
              "type": "uint256"
            },
            {
              "internalType": "uint256",
              "name": "raised",
              "type": "uint256"
            },
            {
              "internalType": "uint256",
              "name": "timestamp",
              "type": "uint256"
            },
            {
              "internalType": "uint256",
              "name": "expiresAt",
              "type": "uint256"
            },
            {
              "internalType": "uint256",
              "name": "backers",
              "type": "uint256"
            },
            {
              "internalType": "enum Genesis.statusEnum",
              "name": "status",
              "type": "uint8"
            }
          ],
          "internalType": "struct Genesis.projectStruct[]",
          "name": "",
          "type": "tuple[]"
        }
      ],
      "stateMutability": "view",
      "type": "function"
    },
    {
      "inputs": [],
      "name": "owner",
      "outputs": [
        {
          "internalType": "address",
          "name": "",
          "type": "address"
        }
      ],
      "stateMutability": "view",
      "type": "function"
    },
    {
      "inputs": [
        {
          "internalType": "uint256",
          "name": "id",
          "type": "uint256"
        }
      ],
      "name": "payOutProject",
      "outputs": [
        {
          "internalType": "bool",
          "name": "",
          "type": "bool"
        }
      ],
      "stateMutability": "nonpayable",
      "type": "function"
    },
    {
      "inputs": [
        {
          "internalType": "uint256",
          "name": "",
          "type": "uint256"
        }
      ],
      "name": "products",
      "outputs": [
        {
          "internalType": "uint256",
          "name": "productId",
          "type": "uint256"
        },
        {
          "internalType": "string",
          "name": "name",
          "type": "string"
        },
        {
          "internalType": "uint256",
          "name": "price",
          "type": "uint256"
        }
      ],
      "stateMutability": "view",
      "type": "function"
    },
    {
      "inputs": [],
      "name": "projectCount",
      "outputs": [
        {
          "internalType": "uint256",
          "name": "",
          "type": "uint256"
        }
      ],
      "stateMutability": "view",
      "type": "function"
    },
    {
      "inputs": [
        {
          "internalType": "uint256",
          "name": "",
          "type": "uint256"
        }
      ],
      "name": "projectExist",
      "outputs": [
        {
          "internalType": "bool",
          "name": "",
          "type": "bool"
        }
      ],
      "stateMutability": "view",
      "type": "function"
    },
    {
      "inputs": [],
      "name": "projectTax",
      "outputs": [
        {
          "internalType": "uint256",
          "name": "",
          "type": "uint256"
        }
      ],
      "stateMutability": "view",
      "type": "function"
    },
    {
      "inputs": [
        {
          "internalType": "uint256",
          "name": "id",
          "type": "uint256"
        }
      ],
      "name": "requestRefund",
      "outputs": [
        {
          "internalType": "bool",
          "name": "",
          "type": "bool"
        }
      ],
      "stateMutability": "nonpayable",
      "type": "function"
    },
    {
      "inputs": [],
      "name": "stats",
      "outputs": [
        {
          "internalType": "uint256",
          "name": "totalProjects",
          "type": "uint256"
        },
        {
          "internalType": "uint256",
          "name": "totalBacking",
          "type": "uint256"
        },
        {
          "internalType": "uint256",
          "name": "totalDonations",
          "type": "uint256"
        }
      ],
      "stateMutability": "view",
      "type": "function"
    },
    {
      "inputs": [
        {
          "internalType": "uint256",
          "name": "id",
          "type": "uint256"
        },
        {
          "internalType": "string",
          "name": "title",
          "type": "string"
        },
        {
          "internalType": "string",
          "name": "description",
          "type": "string"
        },
        {
          "internalType": "string",
          "name": "imageURL",
          "type": "string"
        },
        {
          "internalType": "uint256",
          "name": "expiresAt",
          "type": "uint256"
        }
      ],
      "name": "updateProject",
      "outputs": [
        {
          "internalType": "bool",
          "name": "",
          "type": "bool"
        }
      ],
      "stateMutability": "nonpayable",
      "type": "function"
    }
  ],
  "bytecode": "0x60806040523480156200001157600080fd5b5060405162002923380380620029238339810160408190526200003491620002e3565b600080546001600160a01b0319163317815560018281556040805160608101825283815281518083018352600981526850726f64756374203160b81b602082810191909152808301918252670de0b6b3a764000093830193909352600b8054948501815590945280516003909302600080516020620028e38339815191528101938455935180519194620000df9360008051602062002903833981519152909101929101906200023d565b5060409182015160029091015580516060810182526001808252825180840184526009815268283937b23ab1ba101960b91b602082810191909152808401918252670de0b6b3a764000094840194909452600b8054928301815560005282516003909202600080516020620028e3833981519152810192835590518051939492936200018493600080516020620029038339815191529093019291909101906200023d565b50604091820151600291820155815160608101835290815281518083018352600981526850726f64756374203360b81b602082810191909152808301918252670de0b6b3a764000093830193909352600b805460018101825560009190915282516003909102600080516020620028e383398151915281019182559151805193949193620002299360008051602062002903833981519152019291909101906200023d565b50604082015181600201555050506200033a565b8280546200024b90620002fd565b90600052602060002090601f0160209004810192826200026f5760008555620002ba565b82601f106200028a57805160ff1916838001178555620002ba565b82800160010185558215620002ba579182015b82811115620002ba5782518255916020019190600101906200029d565b50620002c8929150620002cc565b5090565b5b80821115620002c85760008155600101620002cd565b600060208284031215620002f657600080fd5b5051919050565b600181811c908216806200031257607f821691505b602082108114156200033457634e487b7160e01b600052602260045260246000fd5b50919050565b612599806200034a6000396000f3fe6080604052600436106101145760003560e01c80639f39a194116100a0578063c9168b7211610064578063c9168b7214610315578063d24cd3ec14610342578063d80528ae14610358578063dcc6012814610392578063f0f3f2c8146103b457600080fd5b80639f39a1941461027e578063a4b2409e14610291578063b531dcba146102b1578063b69ef8a8146102d1578063b9db15b4146102e757600080fd5b80637acc0b20116100e75780637acc0b20146101b45780638593054b146101e35780638642269e146102135780638da5cb5b146102265780639a3fa8c71461025e57600080fd5b8063056c29ee1461011957806336fbad261461014e5780633e45c8af146101725780634cd0cb2814610194575b600080fd5b34801561012557600080fd5b50610139610134366004612057565b6103e1565b60405190151581526020015b60405180910390f35b34801561015a57600080fd5b5061016460025481565b604051908152602001610145565b34801561017e57600080fd5b5061019261018d3660046120f1565b61084a565b005b3480156101a057600080fd5b506101396101af3660046120f1565b61089f565b3480156101c057600080fd5b506101d46101cf3660046120f1565b610a1b565b60405161014593929190612157565b3480156101ef57600080fd5b506101396101fe3660046120f1565b600a6020526000908152604090205460ff1681565b6101926102213660046120f1565b610ad9565b34801561023257600080fd5b50600054610246906001600160a01b031681565b6040516001600160a01b039091168152602001610145565b34801561026a57600080fd5b50610139610279366004612180565b610bea565b61013961028c3660046120f1565b610e61565b34801561029d57600080fd5b506101396102ac3660046120f1565b61126e565b3480156102bd57600080fd5b506101396102cc3660046120f1565b611365565b3480156102dd57600080fd5b5061016460035481565b3480156102f357600080fd5b506103076103023660046120f1565b611454565b60405161014592919061221a565b34801561032157600080fd5b506103356103303660046120f1565b611541565b604051610145919061223c565b34801561034e57600080fd5b5061016460015481565b34801561036457600080fd5b5060045460055460065461037792919083565b60408051938452602084019290925290820152606001610145565b34801561039e57600080fd5b506103a76115e3565b60405161014591906123a8565b3480156103c057600080fd5b506103d46103cf3660046120f1565b61187e565b604051610145919061240a565b6000808651116104305760405162461bcd60e51b81526020600482015260156024820152745469746c652063616e6e6f7420626520656d70747960581b60448201526064015b60405180910390fd5b60008551116104815760405162461bcd60e51b815260206004820152601b60248201527f4465736372697074696f6e2063616e6e6f7420626520656d70747900000000006044820152606401610427565b60008451116104cd5760405162461bcd60e51b8152602060048201526018602482015277496d61676555524c2063616e6e6f7420626520656d70747960401b6044820152606401610427565b600083116105135760405162461bcd60e51b8152602060048201526013602482015272436f73742063616e6e6f74206265207a65726f60681b6044820152606401610427565b61051b611ea8565b600254815233602080830191825260408301898152606084018990526080840188905260a084018790524260e085015261010084018690526007805460018101825560009190915284517fa66cc928b5edb82af9bd49922954155ab7b0942694bea4ce44661d9a8736c688600b90920291820190815593517fa66cc928b5edb82af9bd49922954155ab7b0942694bea4ce44661d9a8736c689820180546001600160a01b0319166001600160a01b0390921691909117905590518051859493610608937fa66cc928b5edb82af9bd49922954155ab7b0942694bea4ce44661d9a8736c68a01920190611f1b565b5060608201518051610624916003840191602090910190611f1b565b5060808201518051610640916004840191602090910190611f1b565b5060a0820151600582015560c0820151600682015560e0820151600782015561010082015160088201556101208201516009820155610140820151600a8201805460ff19166001836004811115610699576106996122ab565b021790555050600280546000908152600a602090815260408083208054600160ff1990911681179091553384526008835281842080548083018255908552938390208751600b909502019384558683015190840180546001600160a01b0319166001600160a01b039092169190911790558501518051869550929361072693908501929190910190611f1b565b5060608201518051610742916003840191602090910190611f1b565b506080820151805161075e916004840191602090910190611f1b565b5060a0820151600582015560c0820151600682015560e0820151600782015561010082015160088201556101208201516009820155610140820151600a8201805460ff191660018360048111156107b7576107b76122ab565b021790555050506001600460000160008282546107d4919061243a565b9091555050600280543391600080516020612544833981519152919060006107fb83612452565b9091555060408051918252606060208301819052600f908301526e141493d29150d50810d49150551151608a1b6080830152429082015260a00160405180910390a25060019695505050505050565b6000546001600160a01b0316331461089a5760405162461bcd60e51b81526020600482015260136024820152724f776e6572207265736572766564206f6e6c7960681b6044820152606401610427565b600155565b600080600783815481106108b5576108b561246d565b60009182526020909120600a600b90920201015460ff1660048111156108dd576108dd6122ab565b146109255760405162461bcd60e51b8152602060048201526018602482015277141c9bda9958dd081b9bc81b1bdb99d95c881bdc195b995960421b6044820152606401610427565b600782815481106109385761093861246d565b60009182526020909120600b90910201600101546001600160a01b031633146109735760405162461bcd60e51b815260040161042790612483565b6003600783815481106109885761098861246d565b60009182526020909120600a600b9092020101805460ff191660018360048111156109b5576109b56122ab565b02179055506109c382611b5e565b60408051838152606060208201819052600f908201526e141493d29150d50811115311551151608a1b6080820152428183015290513391600080516020612544833981519152919081900360a00190a2506001919050565b600b8181548110610a2b57600080fd5b60009182526020909120600390910201805460018201805491935090610a50906124b0565b80601f0160208091040260200160405190810160405280929190818152602001828054610a7c906124b0565b8015610ac95780601f10610a9e57610100808354040283529160200191610ac9565b820191906000526020600020905b815481529060010190602001808311610aac57829003601f168201915b5050505050908060020154905083565b6000600b8281548110610aee57610aee61246d565b906000526020600020906003020190508060020154341015610b635760405162461bcd60e51b815260206004820152602860248201527f496e73756666696369656e742066756e647320746f20627579207468652070726044820152676f6475637421212160c01b6064820152608401610427565b6002810154604051339180156108fc02916000818181858888f19350505050158015610b93573d6000803e3d6000fd5b506040805183815260606020820181905260119082015270141493d11550d50814155490d21054d151607a1b6080820152428183015290513391600080516020612544833981519152919081900360a00190a25050565b600060078681548110610bff57610bff61246d565b60009182526020909120600b90910201600101546001600160a01b03163314610c3a5760405162461bcd60e51b815260040161042790612483565b6000855111610c835760405162461bcd60e51b81526020600482015260156024820152745469746c652063616e6e6f7420626520656d70747960581b6044820152606401610427565b6000845111610cd45760405162461bcd60e51b815260206004820152601b60248201527f4465736372697074696f6e2063616e6e6f7420626520656d70747900000000006044820152606401610427565b6000835111610d205760405162461bcd60e51b8152602060048201526018602482015277496d61676555524c2063616e6e6f7420626520656d70747960401b6044820152606401610427565b8460078781548110610d3457610d3461246d565b90600052602060002090600b02016002019080519060200190610d58929190611f1b565b508360078781548110610d6d57610d6d61246d565b90600052602060002090600b02016003019080519060200190610d91929190611f1b565b508260078781548110610da657610da661246d565b90600052602060002090600b02016004019080519060200190610dca929190611f1b565b508160078781548110610ddf57610ddf61246d565b90600052602060002090600b020160080181905550336001600160a01b03166000805160206125448339815191528742604051610e4d929190918252606060208301819052600f908301526e141493d29150d50815541110551151608a1b6080830152604082015260a00190565b60405180910390a250600195945050505050565b6000803411610eb25760405162461bcd60e51b815260206004820152601f60248201527f4574686572206d7573742062652067726561746572207468616e207a65726f006044820152606401610427565b6000828152600a602052604090205460ff16610f045760405162461bcd60e51b8152602060048201526011602482015270141c9bda9958dd081b9bdd08199bdd5b99607a1b6044820152606401610427565b600060078381548110610f1957610f1961246d565b60009182526020909120600a600b90920201015460ff166004811115610f4157610f416122ab565b14610f895760405162461bcd60e51b8152602060048201526018602482015277141c9bda9958dd081b9bc81b1bdb99d95c881bdc195b995960421b6044820152606401610427565b600160046001016000828254610f9f919061243a565b909155505060068054349190600090610fb990849061243a565b925050819055503460078381548110610fd457610fd461246d565b90600052602060002090600b02016006016000828254610ff4919061243a565b925050819055506001600783815481106110105761101061246d565b90600052602060002090600b02016009016000828254611030919061243a565b9091555050600082815260096020908152604080832081516080808201845233808352348387019081524284870181815260608087018b8152885460018082018b55998d529b8b902097516004909c0290970180546001600160a01b0319166001600160a01b03909c169b909b178b559251968a01969096559451600289015592516003909701805460ff1916971515979097179096558351888152948501829052600e918501919091526d141493d29150d508109050d2d15160921b90840152908201526000805160206125448339815191529060a00160405180910390a2600782815481106111235761112361246d565b90600052602060002090600b020160050154600783815481106111485761114861246d565b90600052602060002090600b020160060154106111f3576001600783815481106111745761117461246d565b60009182526020909120600a600b9092020101805460ff191660018360048111156111a1576111a16122ab565b0217905550600782815481106111b9576111b961246d565b90600052602060002090600b020160060154600360008282546111dc919061243a565b909155506111eb905082611ccc565b506001919050565b600782815481106112065761120661246d565b90600052602060002090600b02016008015442106111eb576002600783815481106112335761123361246d565b60009182526020909120600a600b9092020101805460ff19166001836004811115611260576112606122ab565b02179055506111eb82611b5e565b60006002600783815481106112855761128561246d565b60009182526020909120600a600b90920201015460ff1660048111156112ad576112ad6122ab565b1415806112f557506003600783815481106112ca576112ca61246d565b60009182526020909120600a600b90920201015460ff1660048111156112f2576112f26122ab565b14155b6113505760405162461bcd60e51b815260206004820152602660248201527f50726f6a656374206e6f74206d61726b656420617320726576657274206f722060448201526564656c65746560d01b6064820152608401610427565b6002600783815481106112335761123361246d565b600060016007838154811061137c5761137c61246d565b60009182526020909120600a600b90920201015460ff1660048111156113a4576113a46122ab565b146113e85760405162461bcd60e51b8152602060048201526014602482015273141c9bda9958dd081b9bdd081054141493d5915160621b6044820152606401610427565b600782815481106113fb576113fb61246d565b60009182526020909120600b90910201600101546001600160a01b031633148061142f57506000546001600160a01b031633145b61144b5760405162461bcd60e51b815260040161042790612483565b6111eb82611ccc565b6060600080600b848154811061146c5761146c61246d565b90600052602060002090600302016040518060600160405290816000820154815260200160018201805461149f906124b0565b80601f01602080910402602001604051908101604052809291908181526020018280546114cb906124b0565b80156115185780601f106114ed57610100808354040283529160200191611518565b820191906000526020600020905b8154815290600101906020018083116114fb57829003601f168201915b505050505081526020016002820154815250509050806020015181604001519250925050915091565b606060096000838152602001908152602001600020805480602002602001604051908101604052809291908181526020016000905b828210156115d8576000848152602090819020604080516080810182526004860290920180546001600160a01b03168352600180820154848601526002820154928401929092526003015460ff16151560608301529083529092019101611576565b505050509050919050565b60606007805480602002602001604051908101604052809291908181526020016000905b828210156118755760008481526020908190206040805161016081018252600b86029092018054835260018101546001600160a01b0316938301939093526002830180549293929184019161165b906124b0565b80601f0160208091040260200160405190810160405280929190818152602001828054611687906124b0565b80156116d45780601f106116a9576101008083540402835291602001916116d4565b820191906000526020600020905b8154815290600101906020018083116116b757829003601f168201915b505050505081526020016003820180546116ed906124b0565b80601f0160208091040260200160405190810160405280929190818152602001828054611719906124b0565b80156117665780601f1061173b57610100808354040283529160200191611766565b820191906000526020600020905b81548152906001019060200180831161174957829003601f168201915b5050505050815260200160048201805461177f906124b0565b80601f01602080910402602001604051908101604052809291908181526020018280546117ab906124b0565b80156117f85780601f106117cd576101008083540402835291602001916117f8565b820191906000526020600020905b8154815290600101906020018083116117db57829003601f168201915b505050918352505060058201546020820152600682015460408201526007820154606082015260088201546080820152600982015460a0820152600a82015460c09091019060ff166004811115611851576118516122ab565b6004811115611862576118626122ab565b8152505081526020019060010190611607565b50505050905090565b611886611ea8565b6000828152600a602052604090205460ff166118d85760405162461bcd60e51b8152602060048201526011602482015270141c9bda9958dd081b9bdd08199bdd5b99607a1b6044820152606401610427565b600782815481106118eb576118eb61246d565b90600052602060002090600b020160405180610160016040529081600082015481526020016001820160009054906101000a90046001600160a01b03166001600160a01b03166001600160a01b0316815260200160028201805461194e906124b0565b80601f016020809104026020016040519081016040528092919081815260200182805461197a906124b0565b80156119c75780601f1061199c576101008083540402835291602001916119c7565b820191906000526020600020905b8154815290600101906020018083116119aa57829003601f168201915b505050505081526020016003820180546119e0906124b0565b80601f0160208091040260200160405190810160405280929190818152602001828054611a0c906124b0565b8015611a595780601f10611a2e57610100808354040283529160200191611a59565b820191906000526020600020905b815481529060010190602001808311611a3c57829003601f168201915b50505050508152602001600482018054611a72906124b0565b80601f0160208091040260200160405190810160405280929190818152602001828054611a9e906124b0565b8015611aeb5780601f10611ac057610100808354040283529160200191611aeb565b820191906000526020600020905b815481529060010190602001808311611ace57829003601f168201915b505050918352505060058201546020820152600682015460408201526007820154606082015260088201546080820152600982015460a0820152600a82015460c09091019060ff166004811115611b4457611b446122ab565b6004811115611b5557611b556122ab565b90525092915050565b60005b600082815260096020526040902054811015611cc8576000828152600960205260408120805483908110611b9757611b9761246d565b6000918252602080832060049092029091015485835260099091526040822080546001600160a01b0390921693509084908110611bd657611bd661246d565b90600052602060002090600402016001015490506001600960008681526020019081526020016000208481548110611c1057611c1061246d565b906000526020600020906004020160030160006101000a81548160ff02191690831515021790555042600960008681526020019081526020016000208481548110611c5d57611c5d61246d565b906000526020600020906004020160020181905550611c7c8282611e43565b600160046001016000828254611c9291906124eb565b909155505060068054829190600090611cac9084906124eb565b9250508190555050508080611cc090612452565b915050611b61565b5050565b600060078281548110611ce157611ce161246d565b90600052602060002090600b02016006015490506000606460015483611d079190612502565b611d119190612521565b9050600460078481548110611d2857611d2861246d565b60009182526020909120600a600b9092020101805460ff19166001836004811115611d5557611d556122ab565b0217905550611d9c60078481548110611d7057611d7061246d565b600091825260209091206001600b9092020101546001600160a01b0316611d9783856124eb565b611e43565b600054611db2906001600160a01b031682611e43565b60078381548110611dc557611dc561246d565b90600052602060002090600b02016006015460036000828254611de891906124eb565b9091555050604080518481526060602082018190526010908201526f141493d29150d508141052510813d55560821b6080820152428183015290513391600080516020612544833981519152919081900360a00190a2505050565b6000826001600160a01b03168260405160006040518083038185875af1925050503d8060008114611e90576040519150601f19603f3d011682016040523d82523d6000602084013e611e95565b606091505b5050905080611ea357600080fd5b505050565b6040518061016001604052806000815260200160006001600160a01b03168152602001606081526020016060815260200160608152602001600081526020016000815260200160008152602001600081526020016000815260200160006004811115611f1657611f166122ab565b905290565b828054611f27906124b0565b90600052602060002090601f016020900481019282611f495760008555611f8f565b82601f10611f6257805160ff1916838001178555611f8f565b82800160010185558215611f8f579182015b82811115611f8f578251825591602001919060010190611f74565b50611f9b929150611f9f565b5090565b5b80821115611f9b5760008155600101611fa0565b634e487b7160e01b600052604160045260246000fd5b600082601f830112611fdb57600080fd5b813567ffffffffffffffff80821115611ff657611ff6611fb4565b604051601f8301601f19908116603f0116810190828211818310171561201e5761201e611fb4565b8160405283815286602085880101111561203757600080fd5b836020870160208301376000602085830101528094505050505092915050565b600080600080600060a0868803121561206f57600080fd5b853567ffffffffffffffff8082111561208757600080fd5b61209389838a01611fca565b965060208801359150808211156120a957600080fd5b6120b589838a01611fca565b955060408801359150808211156120cb57600080fd5b506120d888828901611fca565b9598949750949560608101359550608001359392505050565b60006020828403121561210357600080fd5b5035919050565b6000815180845260005b8181101561213057602081850181015186830182015201612114565b81811115612142576000602083870101525b50601f01601f19169290920160200192915050565b838152606060208201526000612170606083018561210a565b9050826040830152949350505050565b600080600080600060a0868803121561219857600080fd5b85359450602086013567ffffffffffffffff808211156121b757600080fd5b6121c389838a01611fca565b955060408801359150808211156121d957600080fd5b6121e589838a01611fca565b945060608801359150808211156121fb57600080fd5b5061220888828901611fca565b95989497509295608001359392505050565b60408152600061222d604083018561210a565b90508260208301529392505050565b602080825282518282018190526000919060409081850190868401855b8281101561229e57815180516001600160a01b031685528681015187860152858101518686015260609081015115159085015260809093019290850190600101612259565b5091979650505050505050565b634e487b7160e01b600052602160045260246000fd5b600581106122df57634e487b7160e01b600052602160045260246000fd5b9052565b600061016082518452602083015161230660208601826001600160a01b03169052565b50604083015181604086015261231e8286018261210a565b91505060608301518482036060860152612338828261210a565b91505060808301518482036080860152612352828261210a565b91505060a083015160a085015260c083015160c085015260e083015160e08501526101008084015181860152506101208084015181860152506101408084015161239e828701826122c1565b5090949350505050565b6000602080830181845280855180835260408601915060408160051b870101925083870160005b828110156123fd57603f198886030184526123eb8583516122e3565b945092850192908501906001016123cf565b5092979650505050505050565b60208152600061241d60208301846122e3565b9392505050565b634e487b7160e01b600052601160045260246000fd5b6000821982111561244d5761244d612424565b500190565b600060001982141561246657612466612424565b5060010190565b634e487b7160e01b600052603260045260246000fd5b602080825260139082015272556e617574686f72697a656420456e7469747960681b604082015260600190565b600181811c908216806124c457607f821691505b602082108114156124e557634e487b7160e01b600052602260045260246000fd5b50919050565b6000828210156124fd576124fd612424565b500390565b600081600019048311821515161561251c5761251c612424565b500290565b60008261253e57634e487b7160e01b600052601260045260246000fd5b50049056feaee8e5d3bbb2f71a951b5632cee20f7ac487b9f8ab4f66a236f7694b13af7c6aa26469706673582212203c273d206be70a33d6b04d10743c330e5b23c80527c48205df6dcd6780f62b8f64736f6c634300080b00330175b7a638427703f0dbe7bb9bbf987a2551717b34e79f33b5b1008d1fa01db90175b7a638427703f0dbe7bb9bbf987a2551717b34e79f33b5b1008d1fa01dba",
  "linkReferences": {},
  "deployedLinkReferences": {}
}