{
  "_format": "hh-sol-artifact-1",
  "contractName": "Genesis",
  "sourceName": "src/contracts/Genesis.sol",
  "abi": [
    {
      "inputs": [
        {
          "internalType": "uint256",
          "name": "_projectTax",
          "type": "uint256"
        }
      ],
      "stateMutability": "nonpayable",
      "type": "constructor"
    },
    {
      "anonymous": false,
      "inputs": [
        {
          "indexed": false,
          "internalType": "uint256",
          "name": "id",
          "type": "uint256"
        },
        {
          "indexed": false,
          "internalType": "string",
          "name": "actionType",
          "type": "string"
        },
        {
          "indexed": true,
          "internalType": "address",
          "name": "executor",
          "type": "address"
        },
        {
          "indexed": false,
          "internalType": "uint256",
          "name": "timestamp",
          "type": "uint256"
        }
      ],
      "name": "Action",
      "type": "event"
    },
    {
      "inputs": [
        {
          "internalType": "uint256",
          "name": "id",
          "type": "uint256"
        }
      ],
      "name": "backProject",
      "outputs": [
        {
          "internalType": "bool",
          "name": "",
          "type": "bool"
        }
      ],
      "stateMutability": "payable",
      "type": "function"
    },
    {
      "inputs": [],
      "name": "balance",
      "outputs": [
        {
          "internalType": "uint256",
          "name": "",
          "type": "uint256"
        }
      ],
      "stateMutability": "view",
      "type": "function"
    },
    {
      "inputs": [
        {
          "internalType": "uint256",
          "name": "productId",
          "type": "uint256"
        }
      ],
      "name": "buyProduct",
      "outputs": [],
      "stateMutability": "payable",
      "type": "function"
    },
    {
      "inputs": [
        {
          "internalType": "uint256",
          "name": "_taxPct",
          "type": "uint256"
        }
      ],
      "name": "changeTax",
      "outputs": [],
      "stateMutability": "nonpayable",
      "type": "function"
    },
    {
      "inputs": [
        {
          "internalType": "string",
          "name": "name",
          "type": "string"
        },
        {
          "internalType": "uint256",
          "name": "price",
          "type": "uint256"
        }
      ],
      "name": "createProduct",
      "outputs": [],
      "stateMutability": "nonpayable",
      "type": "function"
    },
    {
      "inputs": [
        {
          "internalType": "string",
          "name": "title",
          "type": "string"
        },
        {
          "internalType": "string",
          "name": "description",
          "type": "string"
        },
        {
          "internalType": "string",
          "name": "imageURL",
          "type": "string"
        },
        {
          "internalType": "uint256",
          "name": "cost",
          "type": "uint256"
        },
        {
          "internalType": "uint256",
          "name": "expiresAt",
          "type": "uint256"
        }
      ],
      "name": "createProject",
      "outputs": [
        {
          "internalType": "bool",
          "name": "",
          "type": "bool"
        }
      ],
      "stateMutability": "nonpayable",
      "type": "function"
    },
    {
      "inputs": [
        {
          "internalType": "uint256",
          "name": "id",
          "type": "uint256"
        }
      ],
      "name": "deleteProject",
      "outputs": [
        {
          "internalType": "bool",
          "name": "",
          "type": "bool"
        }
      ],
      "stateMutability": "nonpayable",
      "type": "function"
    },
    {
      "inputs": [
        {
          "internalType": "uint256",
          "name": "id",
          "type": "uint256"
        }
      ],
      "name": "getBackers",
      "outputs": [
        {
          "components": [
            {
              "internalType": "address",
              "name": "owner",
              "type": "address"
            },
            {
              "internalType": "uint256",
              "name": "contribution",
              "type": "uint256"
            },
            {
              "internalType": "uint256",
              "name": "timestamp",
              "type": "uint256"
            },
            {
              "internalType": "bool",
              "name": "refunded",
              "type": "bool"
            }
          ],
          "internalType": "struct Genesis.backerStruct[]",
          "name": "",
          "type": "tuple[]"
        }
      ],
      "stateMutability": "view",
      "type": "function"
    },
    {
      "inputs": [
        {
          "internalType": "uint256",
          "name": "id",
          "type": "uint256"
        }
      ],
      "name": "getProduct",
      "outputs": [
        {
          "internalType": "string",
          "name": "",
          "type": "string"
        },
        {
          "internalType": "uint256",
          "name": "",
          "type": "uint256"
        }
      ],
      "stateMutability": "view",
      "type": "function"
    },
    {
      "inputs": [
        {
          "internalType": "uint256",
          "name": "id",
          "type": "uint256"
        }
      ],
      "name": "getProject",
      "outputs": [
        {
          "components": [
            {
              "internalType": "uint256",
              "name": "id",
              "type": "uint256"
            },
            {
              "internalType": "address",
              "name": "owner",
              "type": "address"
            },
            {
              "internalType": "string",
              "name": "title",
              "type": "string"
            },
            {
              "internalType": "string",
              "name": "description",
              "type": "string"
            },
            {
              "internalType": "string",
              "name": "imageURL",
              "type": "string"
            },
            {
              "internalType": "uint256",
              "name": "cost",
              "type": "uint256"
            },
            {
              "internalType": "uint256",
              "name": "raised",
              "type": "uint256"
            },
            {
              "internalType": "uint256",
              "name": "timestamp",
              "type": "uint256"
            },
            {
              "internalType": "uint256",
              "name": "expiresAt",
              "type": "uint256"
            },
            {
              "internalType": "uint256",
              "name": "backers",
              "type": "uint256"
            },
            {
              "internalType": "enum Genesis.statusEnum",
              "name": "status",
              "type": "uint8"
            }
          ],
          "internalType": "struct Genesis.projectStruct",
          "name": "",
          "type": "tuple"
        }
      ],
      "stateMutability": "view",
      "type": "function"
    },
    {
      "inputs": [],
      "name": "getProjects",
      "outputs": [
        {
          "components": [
            {
              "internalType": "uint256",
              "name": "id",
              "type": "uint256"
            },
            {
              "internalType": "address",
              "name": "owner",
              "type": "address"
            },
            {
              "internalType": "string",
              "name": "title",
              "type": "string"
            },
            {
              "internalType": "string",
              "name": "description",
              "type": "string"
            },
            {
              "internalType": "string",
              "name": "imageURL",
              "type": "string"
            },
            {
              "internalType": "uint256",
              "name": "cost",
              "type": "uint256"
            },
            {
              "internalType": "uint256",
              "name": "raised",
              "type": "uint256"
            },
            {
              "internalType": "uint256",
              "name": "timestamp",
              "type": "uint256"
            },
            {
              "internalType": "uint256",
              "name": "expiresAt",
              "type": "uint256"
            },
            {
              "internalType": "uint256",
              "name": "backers",
              "type": "uint256"
            },
            {
              "internalType": "enum Genesis.statusEnum",
              "name": "status",
              "type": "uint8"
            }
          ],
          "internalType": "struct Genesis.projectStruct[]",
          "name": "",
          "type": "tuple[]"
        }
      ],
      "stateMutability": "view",
      "type": "function"
    },
    {
      "inputs": [],
      "name": "owner",
      "outputs": [
        {
          "internalType": "address",
          "name": "",
          "type": "address"
        }
      ],
      "stateMutability": "view",
      "type": "function"
    },
    {
      "inputs": [
        {
          "internalType": "uint256",
          "name": "id",
          "type": "uint256"
        }
      ],
      "name": "payOutProject",
      "outputs": [
        {
          "internalType": "bool",
          "name": "",
          "type": "bool"
        }
      ],
      "stateMutability": "nonpayable",
      "type": "function"
    },
    {
      "inputs": [
        {
          "internalType": "uint256",
          "name": "",
          "type": "uint256"
        }
      ],
      "name": "products",
      "outputs": [
        {
          "internalType": "string",
          "name": "name",
          "type": "string"
        },
        {
          "internalType": "uint256",
          "name": "price",
          "type": "uint256"
        }
      ],
      "stateMutability": "view",
      "type": "function"
    },
    {
      "inputs": [],
      "name": "projectCount",
      "outputs": [
        {
          "internalType": "uint256",
          "name": "",
          "type": "uint256"
        }
      ],
      "stateMutability": "view",
      "type": "function"
    },
    {
      "inputs": [
        {
          "internalType": "uint256",
          "name": "",
          "type": "uint256"
        }
      ],
      "name": "projectExist",
      "outputs": [
        {
          "internalType": "bool",
          "name": "",
          "type": "bool"
        }
      ],
      "stateMutability": "view",
      "type": "function"
    },
    {
      "inputs": [],
      "name": "projectTax",
      "outputs": [
        {
          "internalType": "uint256",
          "name": "",
          "type": "uint256"
        }
      ],
      "stateMutability": "view",
      "type": "function"
    },
    {
      "inputs": [
        {
          "internalType": "uint256",
          "name": "id",
          "type": "uint256"
        }
      ],
      "name": "requestRefund",
      "outputs": [
        {
          "internalType": "bool",
          "name": "",
          "type": "bool"
        }
      ],
      "stateMutability": "nonpayable",
      "type": "function"
    },
    {
      "inputs": [],
      "name": "stats",
      "outputs": [
        {
          "internalType": "uint256",
          "name": "totalProjects",
          "type": "uint256"
        },
        {
          "internalType": "uint256",
          "name": "totalBacking",
          "type": "uint256"
        },
        {
          "internalType": "uint256",
          "name": "totalDonations",
          "type": "uint256"
        }
      ],
      "stateMutability": "view",
      "type": "function"
    },
    {
      "inputs": [
        {
          "internalType": "uint256",
          "name": "id",
          "type": "uint256"
        },
        {
          "internalType": "string",
          "name": "title",
          "type": "string"
        },
        {
          "internalType": "string",
          "name": "description",
          "type": "string"
        },
        {
          "internalType": "string",
          "name": "imageURL",
          "type": "string"
        },
        {
          "internalType": "uint256",
          "name": "expiresAt",
          "type": "uint256"
        }
      ],
      "name": "updateProject",
      "outputs": [
        {
          "internalType": "bool",
          "name": "",
          "type": "bool"
        }
      ],
      "stateMutability": "nonpayable",
      "type": "function"
    }
  ],
  "bytecode": "0x608060405234801561001057600080fd5b50604051620028a1380380620028a18339810160408190526100319161004b565b600080546001600160a01b03191633179055600155610064565b60006020828403121561005d57600080fd5b5051919050565b61282d80620000746000396000f3fe60806040526004361061011f5760003560e01c8063a4b2409e116100a0578063d24cd3ec11610064578063d24cd3ec1461033e578063d80528ae14610354578063dcc601281461038e578063e9300c6c146103b0578063f0f3f2c8146103d057600080fd5b8063a4b2409e1461029b578063b531dcba146102bb578063b69ef8a8146102db578063b9db15b4146102f1578063c9168b721461031157600080fd5b80638593054b116100e75780638593054b146101ed5780638642269e1461021d5780638da5cb5b146102305780639a3fa8c7146102685780639f39a1941461028857600080fd5b8063056c29ee1461012457806336fbad26146101595780633e45c8af1461017d5780634cd0cb281461019f5780637acc0b20146101bf575b600080fd5b34801561013057600080fd5b5061014461013f3660046122cf565b6103fd565b60405190151581526020015b60405180910390f35b34801561016557600080fd5b5061016f60025481565b604051908152602001610150565b34801561018957600080fd5b5061019d610198366004612369565b610866565b005b3480156101ab57600080fd5b506101446101ba366004612369565b6108bb565b3480156101cb57600080fd5b506101df6101da366004612369565b610a37565b6040516101509291906123cf565b3480156101f957600080fd5b50610144610208366004612369565b600a6020526000908152604090205460ff1681565b61019d61022b366004612369565b610af3565b34801561023c57600080fd5b50600054610250906001600160a01b031681565b6040516001600160a01b039091168152602001610150565b34801561027457600080fd5b506101446102833660046123f1565b610c53565b610144610296366004612369565b610eca565b3480156102a757600080fd5b506101446102b6366004612369565b6112d7565b3480156102c757600080fd5b506101446102d6366004612369565b6113ce565b3480156102e757600080fd5b5061016f60035481565b3480156102fd57600080fd5b506101df61030c366004612369565b6114bd565b34801561031d57600080fd5b5061033161032c366004612369565b6115e4565b604051610150919061248b565b34801561034a57600080fd5b5061016f60015481565b34801561036057600080fd5b5060045460055460065461037392919083565b60408051938452602084019290925290820152606001610150565b34801561039a57600080fd5b506103a3611686565b60405161015091906125f7565b3480156103bc57600080fd5b5061019d6103cb366004612659565b611921565b3480156103dc57600080fd5b506103f06103eb366004612369565b611afb565b604051610150919061269e565b60008086511161044c5760405162461bcd60e51b81526020600482015260156024820152745469746c652063616e6e6f7420626520656d70747960581b60448201526064015b60405180910390fd5b600085511161049d5760405162461bcd60e51b815260206004820152601b60248201527f4465736372697074696f6e2063616e6e6f7420626520656d70747900000000006044820152606401610443565b60008451116104e95760405162461bcd60e51b8152602060048201526018602482015277496d61676555524c2063616e6e6f7420626520656d70747960401b6044820152606401610443565b6000831161052f5760405162461bcd60e51b8152602060048201526013602482015272436f73742063616e6e6f74206265207a65726f60681b6044820152606401610443565b610537612120565b600254815233602080830191825260408301898152606084018990526080840188905260a084018790524260e085015261010084018690526007805460018101825560009190915284517fa66cc928b5edb82af9bd49922954155ab7b0942694bea4ce44661d9a8736c688600b90920291820190815593517fa66cc928b5edb82af9bd49922954155ab7b0942694bea4ce44661d9a8736c689820180546001600160a01b0319166001600160a01b0390921691909117905590518051859493610624937fa66cc928b5edb82af9bd49922954155ab7b0942694bea4ce44661d9a8736c68a01920190612193565b5060608201518051610640916003840191602090910190612193565b506080820151805161065c916004840191602090910190612193565b5060a0820151600582015560c0820151600682015560e0820151600782015561010082015160088201556101208201516009820155610140820151600a8201805460ff191660018360048111156106b5576106b56124fa565b021790555050600280546000908152600a602090815260408083208054600160ff1990911681179091553384526008835281842080548083018255908552938390208751600b909502019384558683015190840180546001600160a01b0319166001600160a01b039092169190911790558501518051869550929361074293908501929190910190612193565b506060820151805161075e916003840191602090910190612193565b506080820151805161077a916004840191602090910190612193565b5060a0820151600582015560c0820151600682015560e0820151600782015561010082015160088201556101208201516009820155610140820151600a8201805460ff191660018360048111156107d3576107d36124fa565b021790555050506001600460000160008282546107f091906126ce565b90915550506002805433916000805160206127d883398151915291906000610817836126e6565b9091555060408051918252606060208301819052600f908301526e141493d29150d50810d49150551151608a1b6080830152429082015260a00160405180910390a25060019695505050505050565b6000546001600160a01b031633146108b65760405162461bcd60e51b81526020600482015260136024820152724f776e6572207265736572766564206f6e6c7960681b6044820152606401610443565b600155565b600080600783815481106108d1576108d1612701565b60009182526020909120600a600b90920201015460ff1660048111156108f9576108f96124fa565b146109415760405162461bcd60e51b8152602060048201526018602482015277141c9bda9958dd081b9bc81b1bdb99d95c881bdc195b995960421b6044820152606401610443565b6007828154811061095457610954612701565b60009182526020909120600b90910201600101546001600160a01b0316331461098f5760405162461bcd60e51b815260040161044390612717565b6003600783815481106109a4576109a4612701565b60009182526020909120600a600b9092020101805460ff191660018360048111156109d1576109d16124fa565b02179055506109df82611ddb565b60408051838152606060208201819052600f908201526e141493d29150d50811115311551151608a1b60808201524281830152905133916000805160206127d8833981519152919081900360a00190a2506001919050565b600b8181548110610a4757600080fd5b9060005260206000209060020201600091509050806000018054610a6a90612744565b80601f0160208091040260200160405190810160405280929190818152602001828054610a9690612744565b8015610ae35780601f10610ab857610100808354040283529160200191610ae3565b820191906000526020600020905b815481529060010190602001808311610ac657829003601f168201915b5050505050908060010154905082565b600b548110610b385760405162461bcd60e51b8152602060048201526011602482015270141c9bd91d58dd081b9bdd08199bdd5b99607a1b6044820152606401610443565b6000600b8281548110610b4d57610b4d612701565b906000526020600020906002020190508060010154341015610bbf5760405162461bcd60e51b815260206004820152602560248201527f496e73756666696369656e742066756e647320746f20627579207468652070726044820152641bd91d58dd60da1b6064820152608401610443565b6000805460018301546040516001600160a01b039092169281156108fc029290818181858888f19350505050158015610bfc573d6000803e3d6000fd5b506040805183815260606020820181905260119082015270141493d11550d50814155490d21054d151607a1b60808201524281830152905133916000805160206127d8833981519152919081900360a00190a25050565b600060078681548110610c6857610c68612701565b60009182526020909120600b90910201600101546001600160a01b03163314610ca35760405162461bcd60e51b815260040161044390612717565b6000855111610cec5760405162461bcd60e51b81526020600482015260156024820152745469746c652063616e6e6f7420626520656d70747960581b6044820152606401610443565b6000845111610d3d5760405162461bcd60e51b815260206004820152601b60248201527f4465736372697074696f6e2063616e6e6f7420626520656d70747900000000006044820152606401610443565b6000835111610d895760405162461bcd60e51b8152602060048201526018602482015277496d61676555524c2063616e6e6f7420626520656d70747960401b6044820152606401610443565b8460078781548110610d9d57610d9d612701565b90600052602060002090600b02016002019080519060200190610dc1929190612193565b508360078781548110610dd657610dd6612701565b90600052602060002090600b02016003019080519060200190610dfa929190612193565b508260078781548110610e0f57610e0f612701565b90600052602060002090600b02016004019080519060200190610e33929190612193565b508160078781548110610e4857610e48612701565b90600052602060002090600b020160080181905550336001600160a01b03166000805160206127d88339815191528742604051610eb6929190918252606060208301819052600f908301526e141493d29150d50815541110551151608a1b6080830152604082015260a00190565b60405180910390a250600195945050505050565b6000803411610f1b5760405162461bcd60e51b815260206004820152601f60248201527f4574686572206d7573742062652067726561746572207468616e207a65726f006044820152606401610443565b6000828152600a602052604090205460ff16610f6d5760405162461bcd60e51b8152602060048201526011602482015270141c9bda9958dd081b9bdd08199bdd5b99607a1b6044820152606401610443565b600060078381548110610f8257610f82612701565b60009182526020909120600a600b90920201015460ff166004811115610faa57610faa6124fa565b14610ff25760405162461bcd60e51b8152602060048201526018602482015277141c9bda9958dd081b9bc81b1bdb99d95c881bdc195b995960421b6044820152606401610443565b60016004600101600082825461100891906126ce565b9091555050600680543491906000906110229084906126ce565b92505081905550346007838154811061103d5761103d612701565b90600052602060002090600b0201600601600082825461105d91906126ce565b9250508190555060016007838154811061107957611079612701565b90600052602060002090600b0201600901600082825461109991906126ce565b9091555050600082815260096020908152604080832081516080808201845233808352348387019081524284870181815260608087018b8152885460018082018b55998d529b8b902097516004909c0290970180546001600160a01b0319166001600160a01b03909c169b909b178b559251968a01969096559451600289015592516003909701805460ff1916971515979097179096558351888152948501829052600e918501919091526d141493d29150d508109050d2d15160921b90840152908201526000805160206127d88339815191529060a00160405180910390a26007828154811061118c5761118c612701565b90600052602060002090600b020160050154600783815481106111b1576111b1612701565b90600052602060002090600b0201600601541061125c576001600783815481106111dd576111dd612701565b60009182526020909120600a600b9092020101805460ff1916600183600481111561120a5761120a6124fa565b02179055506007828154811061122257611222612701565b90600052602060002090600b0201600601546003600082825461124591906126ce565b90915550611254905082611f49565b506001919050565b6007828154811061126f5761126f612701565b90600052602060002090600b02016008015442106112545760026007838154811061129c5761129c612701565b60009182526020909120600a600b9092020101805460ff191660018360048111156112c9576112c96124fa565b021790555061125482611ddb565b60006002600783815481106112ee576112ee612701565b60009182526020909120600a600b90920201015460ff166004811115611316576113166124fa565b14158061135e575060036007838154811061133357611333612701565b60009182526020909120600a600b90920201015460ff16600481111561135b5761135b6124fa565b14155b6113b95760405162461bcd60e51b815260206004820152602660248201527f50726f6a656374206e6f74206d61726b656420617320726576657274206f722060448201526564656c65746560d01b6064820152608401610443565b60026007838154811061129c5761129c612701565b60006001600783815481106113e5576113e5612701565b60009182526020909120600a600b90920201015460ff16600481111561140d5761140d6124fa565b146114515760405162461bcd60e51b8152602060048201526014602482015273141c9bda9958dd081b9bdd081054141493d5915160621b6044820152606401610443565b6007828154811061146457611464612701565b60009182526020909120600b90910201600101546001600160a01b031633148061149857506000546001600160a01b031633145b6114b45760405162461bcd60e51b815260040161044390612717565b61125482611f49565b600b5460609060009083106115085760405162461bcd60e51b8152602060048201526011602482015270141c9bd91d58dd081b9bdd08199bdd5b99607a1b6044820152606401610443565b6000600b848154811061151d5761151d612701565b906000526020600020906002020160405180604001604052908160008201805461154690612744565b80601f016020809104026020016040519081016040528092919081815260200182805461157290612744565b80156115bf5780601f10611594576101008083540402835291602001916115bf565b820191906000526020600020905b8154815290600101906020018083116115a257829003601f168201915b5050509183525050600191909101546020918201528151910151909590945092505050565b606060096000838152602001908152602001600020805480602002602001604051908101604052809291908181526020016000905b8282101561167b576000848152602090819020604080516080810182526004860290920180546001600160a01b03168352600180820154848601526002820154928401929092526003015460ff16151560608301529083529092019101611619565b505050509050919050565b60606007805480602002602001604051908101604052809291908181526020016000905b828210156119185760008481526020908190206040805161016081018252600b86029092018054835260018101546001600160a01b031693830193909352600283018054929392918401916116fe90612744565b80601f016020809104026020016040519081016040528092919081815260200182805461172a90612744565b80156117775780601f1061174c57610100808354040283529160200191611777565b820191906000526020600020905b81548152906001019060200180831161175a57829003601f168201915b5050505050815260200160038201805461179090612744565b80601f01602080910402602001604051908101604052809291908181526020018280546117bc90612744565b80156118095780601f106117de57610100808354040283529160200191611809565b820191906000526020600020905b8154815290600101906020018083116117ec57829003601f168201915b5050505050815260200160048201805461182290612744565b80601f016020809104026020016040519081016040528092919081815260200182805461184e90612744565b801561189b5780601f106118705761010080835404028352916020019161189b565b820191906000526020600020905b81548152906001019060200180831161187e57829003601f168201915b505050918352505060058201546020820152600682015460408201526007820154606082015260088201546080820152600982015460a0820152600a82015460c09091019060ff1660048111156118f4576118f46124fa565b6004811115611905576119056124fa565b81525050815260200190600101906116aa565b50505050905090565b6000546001600160a01b031633146119715760405162461bcd60e51b81526020600482015260136024820152724f776e6572207265736572766564206f6e6c7960681b6044820152606401610443565b60008251116119c25760405162461bcd60e51b815260206004820152601c60248201527f50726f64756374206e616d652063616e6e6f7420626520656d707479000000006044820152606401610443565b60008111611a225760405162461bcd60e51b815260206004820152602760248201527f50726f64756374207072696365206d7573742062652067726561746572207468604482015266616e207a65726f60c81b6064820152608401610443565b604080518082019091528281526020808201839052600b805460018101825560009190915282518051849360029093027f0175b7a638427703f0dbe7bb9bbf987a2551717b34e79f33b5b1008d1fa01db90192611a83928492910190612193565b50602091909101516001909101556002805433916000805160206127d883398151915291906000611ab3836126e6565b9091555060408051918252606060208301819052600f908301526e141493d11550d50810d49150551151608a1b6080830152429082015260a0015b60405180910390a2505050565b611b03612120565b6000828152600a602052604090205460ff16611b555760405162461bcd60e51b8152602060048201526011602482015270141c9bda9958dd081b9bdd08199bdd5b99607a1b6044820152606401610443565b60078281548110611b6857611b68612701565b90600052602060002090600b020160405180610160016040529081600082015481526020016001820160009054906101000a90046001600160a01b03166001600160a01b03166001600160a01b03168152602001600282018054611bcb90612744565b80601f0160208091040260200160405190810160405280929190818152602001828054611bf790612744565b8015611c445780601f10611c1957610100808354040283529160200191611c44565b820191906000526020600020905b815481529060010190602001808311611c2757829003601f168201915b50505050508152602001600382018054611c5d90612744565b80601f0160208091040260200160405190810160405280929190818152602001828054611c8990612744565b8015611cd65780601f10611cab57610100808354040283529160200191611cd6565b820191906000526020600020905b815481529060010190602001808311611cb957829003601f168201915b50505050508152602001600482018054611cef90612744565b80601f0160208091040260200160405190810160405280929190818152602001828054611d1b90612744565b8015611d685780601f10611d3d57610100808354040283529160200191611d68565b820191906000526020600020905b815481529060010190602001808311611d4b57829003601f168201915b505050918352505060058201546020820152600682015460408201526007820154606082015260088201546080820152600982015460a0820152600a82015460c09091019060ff166004811115611dc157611dc16124fa565b6004811115611dd257611dd26124fa565b90525092915050565b60005b600082815260096020526040902054811015611f45576000828152600960205260408120805483908110611e1457611e14612701565b6000918252602080832060049092029091015485835260099091526040822080546001600160a01b0390921693509084908110611e5357611e53612701565b90600052602060002090600402016001015490506001600960008681526020019081526020016000208481548110611e8d57611e8d612701565b906000526020600020906004020160030160006101000a81548160ff02191690831515021790555042600960008681526020019081526020016000208481548110611eda57611eda612701565b906000526020600020906004020160020181905550611ef982826120bb565b600160046001016000828254611f0f919061277f565b909155505060068054829190600090611f2990849061277f565b9250508190555050508080611f3d906126e6565b915050611dde565b5050565b600060078281548110611f5e57611f5e612701565b90600052602060002090600b02016006015490506000606460015483611f849190612796565b611f8e91906127b5565b9050600460078481548110611fa557611fa5612701565b60009182526020909120600a600b9092020101805460ff19166001836004811115611fd257611fd26124fa565b021790555061201960078481548110611fed57611fed612701565b600091825260209091206001600b9092020101546001600160a01b0316612014838561277f565b6120bb565b60005461202f906001600160a01b0316826120bb565b6007838154811061204257612042612701565b90600052602060002090600b02016006015460036000828254612065919061277f565b9091555050604080518481526060602082018190526010908201526f141493d29150d508141052510813d55560821b6080820152429181019190915233906000805160206127d88339815191529060a001611aee565b6000826001600160a01b03168260405160006040518083038185875af1925050503d8060008114612108576040519150601f19603f3d011682016040523d82523d6000602084013e61210d565b606091505b505090508061211b57600080fd5b505050565b6040518061016001604052806000815260200160006001600160a01b0316815260200160608152602001606081526020016060815260200160008152602001600081526020016000815260200160008152602001600081526020016000600481111561218e5761218e6124fa565b905290565b82805461219f90612744565b90600052602060002090601f0160209004810192826121c15760008555612207565b82601f106121da57805160ff1916838001178555612207565b82800160010185558215612207579182015b828111156122075782518255916020019190600101906121ec565b50612213929150612217565b5090565b5b808211156122135760008155600101612218565b634e487b7160e01b600052604160045260246000fd5b600082601f83011261225357600080fd5b813567ffffffffffffffff8082111561226e5761226e61222c565b604051601f8301601f19908116603f011681019082821181831017156122965761229661222c565b816040528381528660208588010111156122af57600080fd5b836020870160208301376000602085830101528094505050505092915050565b600080600080600060a086880312156122e757600080fd5b853567ffffffffffffffff808211156122ff57600080fd5b61230b89838a01612242565b9650602088013591508082111561232157600080fd5b61232d89838a01612242565b9550604088013591508082111561234357600080fd5b5061235088828901612242565b9598949750949560608101359550608001359392505050565b60006020828403121561237b57600080fd5b5035919050565b6000815180845260005b818110156123a85760208185018101518683018201520161238c565b818111156123ba576000602083870101525b50601f01601f19169290920160200192915050565b6040815260006123e26040830185612382565b90508260208301529392505050565b600080600080600060a0868803121561240957600080fd5b85359450602086013567ffffffffffffffff8082111561242857600080fd5b61243489838a01612242565b9550604088013591508082111561244a57600080fd5b61245689838a01612242565b9450606088013591508082111561246c57600080fd5b5061247988828901612242565b95989497509295608001359392505050565b602080825282518282018190526000919060409081850190868401855b828110156124ed57815180516001600160a01b0316855286810151878601528581015186860152606090810151151590850152608090930192908501906001016124a8565b5091979650505050505050565b634e487b7160e01b600052602160045260246000fd5b6005811061252e57634e487b7160e01b600052602160045260246000fd5b9052565b600061016082518452602083015161255560208601826001600160a01b03169052565b50604083015181604086015261256d82860182612382565b915050606083015184820360608601526125878282612382565b915050608083015184820360808601526125a18282612382565b91505060a083015160a085015260c083015160c085015260e083015160e0850152610100808401518186015250610120808401518186015250610140808401516125ed82870182612510565b5090949350505050565b6000602080830181845280855180835260408601915060408160051b870101925083870160005b8281101561264c57603f1988860301845261263a858351612532565b9450928501929085019060010161261e565b5092979650505050505050565b6000806040838503121561266c57600080fd5b823567ffffffffffffffff81111561268357600080fd5b61268f85828601612242565b95602094909401359450505050565b6020815260006126b16020830184612532565b9392505050565b634e487b7160e01b600052601160045260246000fd5b600082198211156126e1576126e16126b8565b500190565b60006000198214156126fa576126fa6126b8565b5060010190565b634e487b7160e01b600052603260045260246000fd5b602080825260139082015272556e617574686f72697a656420456e7469747960681b604082015260600190565b600181811c9082168061275857607f821691505b6020821081141561277957634e487b7160e01b600052602260045260246000fd5b50919050565b600082821015612791576127916126b8565b500390565b60008160001904831182151516156127b0576127b06126b8565b500290565b6000826127d257634e487b7160e01b600052601260045260246000fd5b50049056feaee8e5d3bbb2f71a951b5632cee20f7ac487b9f8ab4f66a236f7694b13af7c6aa2646970667358221220288baec5c2a2f31492e0c830d1972aa96464e7878a6164eebf7a846fcdadede164736f6c634300080b0033",
  "linkReferences": {},
  "deployedLinkReferences": {}
}