{
  "_format": "hh-sol-artifact-1",
  "contractName": "Genesis",
  "sourceName": "src/contracts/Genesis.sol",
  "abi": [
    {
      "inputs": [
        {
          "internalType": "uint256",
          "name": "_projectTax",
          "type": "uint256"
        }
      ],
      "stateMutability": "nonpayable",
      "type": "constructor"
    },
    {
      "anonymous": false,
      "inputs": [
        {
          "indexed": false,
          "internalType": "uint256",
          "name": "id",
          "type": "uint256"
        },
        {
          "indexed": false,
          "internalType": "string",
          "name": "actionType",
          "type": "string"
        },
        {
          "indexed": true,
          "internalType": "address",
          "name": "executor",
          "type": "address"
        },
        {
          "indexed": false,
          "internalType": "uint256",
          "name": "timestamp",
          "type": "uint256"
        }
      ],
      "name": "Action",
      "type": "event"
    },
    {
      "inputs": [
        {
          "internalType": "uint256",
          "name": "id",
          "type": "uint256"
        }
      ],
      "name": "backProject",
      "outputs": [
        {
          "internalType": "bool",
          "name": "",
          "type": "bool"
        }
      ],
      "stateMutability": "payable",
      "type": "function"
    },
    {
      "inputs": [],
      "name": "balance",
      "outputs": [
        {
          "internalType": "uint256",
          "name": "",
          "type": "uint256"
        }
      ],
      "stateMutability": "view",
      "type": "function"
    },
    {
      "inputs": [
        {
          "internalType": "uint256",
          "name": "productId",
          "type": "uint256"
        }
      ],
      "name": "buyProduct",
      "outputs": [],
      "stateMutability": "payable",
      "type": "function"
    },
    {
      "inputs": [
        {
          "internalType": "uint256",
          "name": "_taxPct",
          "type": "uint256"
        }
      ],
      "name": "changeTax",
      "outputs": [],
      "stateMutability": "nonpayable",
      "type": "function"
    },
    {
      "inputs": [
        {
          "internalType": "string",
          "name": "title",
          "type": "string"
        },
        {
          "internalType": "string",
          "name": "description",
          "type": "string"
        },
        {
          "internalType": "string",
          "name": "imageURL",
          "type": "string"
        },
        {
          "internalType": "uint256",
          "name": "cost",
          "type": "uint256"
        },
        {
          "internalType": "uint256",
          "name": "expiresAt",
          "type": "uint256"
        }
      ],
      "name": "createProject",
      "outputs": [
        {
          "internalType": "bool",
          "name": "",
          "type": "bool"
        }
      ],
      "stateMutability": "nonpayable",
      "type": "function"
    },
    {
      "inputs": [
        {
          "internalType": "uint256",
          "name": "id",
          "type": "uint256"
        }
      ],
      "name": "deleteProject",
      "outputs": [
        {
          "internalType": "bool",
          "name": "",
          "type": "bool"
        }
      ],
      "stateMutability": "nonpayable",
      "type": "function"
    },
    {
      "inputs": [
        {
          "internalType": "uint256",
          "name": "id",
          "type": "uint256"
        }
      ],
      "name": "getBackers",
      "outputs": [
        {
          "components": [
            {
              "internalType": "address",
              "name": "owner",
              "type": "address"
            },
            {
              "internalType": "uint256",
              "name": "contribution",
              "type": "uint256"
            },
            {
              "internalType": "uint256",
              "name": "timestamp",
              "type": "uint256"
            },
            {
              "internalType": "bool",
              "name": "refunded",
              "type": "bool"
            }
          ],
          "internalType": "struct Genesis.backerStruct[]",
          "name": "",
          "type": "tuple[]"
        }
      ],
      "stateMutability": "view",
      "type": "function"
    },
    {
      "inputs": [
        {
          "internalType": "uint256",
          "name": "id",
          "type": "uint256"
        }
      ],
      "name": "getProduct",
      "outputs": [
        {
          "internalType": "string",
          "name": "",
          "type": "string"
        },
        {
          "internalType": "uint256",
          "name": "",
          "type": "uint256"
        }
      ],
      "stateMutability": "view",
      "type": "function"
    },
    {
      "inputs": [
        {
          "internalType": "uint256",
          "name": "id",
          "type": "uint256"
        }
      ],
      "name": "getProject",
      "outputs": [
        {
          "components": [
            {
              "internalType": "uint256",
              "name": "id",
              "type": "uint256"
            },
            {
              "internalType": "address",
              "name": "owner",
              "type": "address"
            },
            {
              "internalType": "string",
              "name": "title",
              "type": "string"
            },
            {
              "internalType": "string",
              "name": "description",
              "type": "string"
            },
            {
              "internalType": "string",
              "name": "imageURL",
              "type": "string"
            },
            {
              "internalType": "uint256",
              "name": "cost",
              "type": "uint256"
            },
            {
              "internalType": "uint256",
              "name": "raised",
              "type": "uint256"
            },
            {
              "internalType": "uint256",
              "name": "timestamp",
              "type": "uint256"
            },
            {
              "internalType": "uint256",
              "name": "expiresAt",
              "type": "uint256"
            },
            {
              "internalType": "uint256",
              "name": "backers",
              "type": "uint256"
            },
            {
              "internalType": "enum Genesis.statusEnum",
              "name": "status",
              "type": "uint8"
            }
          ],
          "internalType": "struct Genesis.projectStruct",
          "name": "",
          "type": "tuple"
        }
      ],
      "stateMutability": "view",
      "type": "function"
    },
    {
      "inputs": [],
      "name": "getProjects",
      "outputs": [
        {
          "components": [
            {
              "internalType": "uint256",
              "name": "id",
              "type": "uint256"
            },
            {
              "internalType": "address",
              "name": "owner",
              "type": "address"
            },
            {
              "internalType": "string",
              "name": "title",
              "type": "string"
            },
            {
              "internalType": "string",
              "name": "description",
              "type": "string"
            },
            {
              "internalType": "string",
              "name": "imageURL",
              "type": "string"
            },
            {
              "internalType": "uint256",
              "name": "cost",
              "type": "uint256"
            },
            {
              "internalType": "uint256",
              "name": "raised",
              "type": "uint256"
            },
            {
              "internalType": "uint256",
              "name": "timestamp",
              "type": "uint256"
            },
            {
              "internalType": "uint256",
              "name": "expiresAt",
              "type": "uint256"
            },
            {
              "internalType": "uint256",
              "name": "backers",
              "type": "uint256"
            },
            {
              "internalType": "enum Genesis.statusEnum",
              "name": "status",
              "type": "uint8"
            }
          ],
          "internalType": "struct Genesis.projectStruct[]",
          "name": "",
          "type": "tuple[]"
        }
      ],
      "stateMutability": "view",
      "type": "function"
    },
    {
      "inputs": [],
      "name": "owner",
      "outputs": [
        {
          "internalType": "address",
          "name": "",
          "type": "address"
        }
      ],
      "stateMutability": "view",
      "type": "function"
    },
    {
      "inputs": [
        {
          "internalType": "uint256",
          "name": "id",
          "type": "uint256"
        }
      ],
      "name": "payOutProject",
      "outputs": [
        {
          "internalType": "bool",
          "name": "",
          "type": "bool"
        }
      ],
      "stateMutability": "nonpayable",
      "type": "function"
    },
    {
      "inputs": [
        {
          "internalType": "uint256",
          "name": "",
          "type": "uint256"
        }
      ],
      "name": "products",
      "outputs": [
        {
          "internalType": "uint256",
          "name": "productId",
          "type": "uint256"
        },
        {
          "internalType": "string",
          "name": "name",
          "type": "string"
        },
        {
          "internalType": "uint256",
          "name": "price",
          "type": "uint256"
        }
      ],
      "stateMutability": "view",
      "type": "function"
    },
    {
      "inputs": [],
      "name": "projectCount",
      "outputs": [
        {
          "internalType": "uint256",
          "name": "",
          "type": "uint256"
        }
      ],
      "stateMutability": "view",
      "type": "function"
    },
    {
      "inputs": [
        {
          "internalType": "uint256",
          "name": "",
          "type": "uint256"
        }
      ],
      "name": "projectExist",
      "outputs": [
        {
          "internalType": "bool",
          "name": "",
          "type": "bool"
        }
      ],
      "stateMutability": "view",
      "type": "function"
    },
    {
      "inputs": [],
      "name": "projectTax",
      "outputs": [
        {
          "internalType": "uint256",
          "name": "",
          "type": "uint256"
        }
      ],
      "stateMutability": "view",
      "type": "function"
    },
    {
      "inputs": [
        {
          "internalType": "uint256",
          "name": "id",
          "type": "uint256"
        }
      ],
      "name": "requestRefund",
      "outputs": [
        {
          "internalType": "bool",
          "name": "",
          "type": "bool"
        }
      ],
      "stateMutability": "nonpayable",
      "type": "function"
    },
    {
      "inputs": [],
      "name": "stats",
      "outputs": [
        {
          "internalType": "uint256",
          "name": "totalProjects",
          "type": "uint256"
        },
        {
          "internalType": "uint256",
          "name": "totalBacking",
          "type": "uint256"
        },
        {
          "internalType": "uint256",
          "name": "totalDonations",
          "type": "uint256"
        }
      ],
      "stateMutability": "view",
      "type": "function"
    },
    {
      "inputs": [
        {
          "internalType": "uint256",
          "name": "id",
          "type": "uint256"
        },
        {
          "internalType": "string",
          "name": "title",
          "type": "string"
        },
        {
          "internalType": "string",
          "name": "description",
          "type": "string"
        },
        {
          "internalType": "string",
          "name": "imageURL",
          "type": "string"
        },
        {
          "internalType": "uint256",
          "name": "expiresAt",
          "type": "uint256"
        }
      ],
      "name": "updateProject",
      "outputs": [
        {
          "internalType": "bool",
          "name": "",
          "type": "bool"
        }
      ],
      "stateMutability": "nonpayable",
      "type": "function"
    }
  ],
  "bytecode": "0x60806040523480156200001157600080fd5b5060405162002984380380620029848339810160408190526200003491620002e3565b600080546001600160a01b0319163317815560018281556040805160608101825283815281518083018352600981526850726f64756374203160b81b602082810191909152808301918252670de0b6b3a764000093830193909352600b8054948501815590945280516003909302600080516020620029448339815191528101938455935180519194620000df9360008051602062002964833981519152909101929101906200023d565b5060409182015160029091015580516060810182526001808252825180840184526009815268283937b23ab1ba101960b91b602082810191909152808401918252670de0b6b3a764000094840194909452600b805492830181556000528251600390920260008051602062002944833981519152810192835590518051939492936200018493600080516020620029648339815191529093019291909101906200023d565b50604091820151600291820155815160608101835290815281518083018352600981526850726f64756374203360b81b602082810191909152808301918252670de0b6b3a764000093830193909352600b8054600181018255600091909152825160039091026000805160206200294483398151915281019182559151805193949193620002299360008051602062002964833981519152019291909101906200023d565b50604082015181600201555050506200033a565b8280546200024b90620002fd565b90600052602060002090601f0160209004810192826200026f5760008555620002ba565b82601f106200028a57805160ff1916838001178555620002ba565b82800160010185558215620002ba579182015b82811115620002ba5782518255916020019190600101906200029d565b50620002c8929150620002cc565b5090565b5b80821115620002c85760008155600101620002cd565b600060208284031215620002f657600080fd5b5051919050565b600181811c908216806200031257607f821691505b602082108114156200033457634e487b7160e01b600052602260045260246000fd5b50919050565b6125fa806200034a6000396000f3fe6080604052600436106101145760003560e01c80639f39a194116100a0578063c9168b7211610064578063c9168b7214610315578063d24cd3ec14610342578063d80528ae14610358578063dcc6012814610392578063f0f3f2c8146103b457600080fd5b80639f39a1941461027e578063a4b2409e14610291578063b531dcba146102b1578063b69ef8a8146102d1578063b9db15b4146102e757600080fd5b80637acc0b20116100e75780637acc0b20146101b45780638593054b146101e35780638642269e146102135780638da5cb5b146102265780639a3fa8c71461025e57600080fd5b8063056c29ee1461011957806336fbad261461014e5780633e45c8af146101725780634cd0cb2814610194575b600080fd5b34801561012557600080fd5b506101396101343660046120b8565b6103e1565b60405190151581526020015b60405180910390f35b34801561015a57600080fd5b5061016460025481565b604051908152602001610145565b34801561017e57600080fd5b5061019261018d366004612152565b61084a565b005b3480156101a057600080fd5b506101396101af366004612152565b61089f565b3480156101c057600080fd5b506101d46101cf366004612152565b610a1b565b604051610145939291906121b8565b3480156101ef57600080fd5b506101396101fe366004612152565b600a6020526000908152604090205460ff1681565b610192610221366004612152565b610ad9565b34801561023257600080fd5b50600054610246906001600160a01b031681565b6040516001600160a01b039091168152602001610145565b34801561026a57600080fd5b506101396102793660046121e1565b610c4b565b61013961028c366004612152565b610ec2565b34801561029d57600080fd5b506101396102ac366004612152565b6112cf565b3480156102bd57600080fd5b506101396102cc366004612152565b6113c6565b3480156102dd57600080fd5b5061016460035481565b3480156102f357600080fd5b50610307610302366004612152565b6114b5565b60405161014592919061227b565b34801561032157600080fd5b50610335610330366004612152565b6115a2565b604051610145919061229d565b34801561034e57600080fd5b5061016460015481565b34801561036457600080fd5b5060045460055460065461037792919083565b60408051938452602084019290925290820152606001610145565b34801561039e57600080fd5b506103a7611644565b6040516101459190612409565b3480156103c057600080fd5b506103d46103cf366004612152565b6118df565b604051610145919061246b565b6000808651116104305760405162461bcd60e51b81526020600482015260156024820152745469746c652063616e6e6f7420626520656d70747960581b60448201526064015b60405180910390fd5b60008551116104815760405162461bcd60e51b815260206004820152601b60248201527f4465736372697074696f6e2063616e6e6f7420626520656d70747900000000006044820152606401610427565b60008451116104cd5760405162461bcd60e51b8152602060048201526018602482015277496d61676555524c2063616e6e6f7420626520656d70747960401b6044820152606401610427565b600083116105135760405162461bcd60e51b8152602060048201526013602482015272436f73742063616e6e6f74206265207a65726f60681b6044820152606401610427565b61051b611f09565b600254815233602080830191825260408301898152606084018990526080840188905260a084018790524260e085015261010084018690526007805460018101825560009190915284517fa66cc928b5edb82af9bd49922954155ab7b0942694bea4ce44661d9a8736c688600b90920291820190815593517fa66cc928b5edb82af9bd49922954155ab7b0942694bea4ce44661d9a8736c689820180546001600160a01b0319166001600160a01b0390921691909117905590518051859493610608937fa66cc928b5edb82af9bd49922954155ab7b0942694bea4ce44661d9a8736c68a01920190611f7c565b5060608201518051610624916003840191602090910190611f7c565b5060808201518051610640916004840191602090910190611f7c565b5060a0820151600582015560c0820151600682015560e0820151600782015561010082015160088201556101208201516009820155610140820151600a8201805460ff191660018360048111156106995761069961230c565b021790555050600280546000908152600a602090815260408083208054600160ff1990911681179091553384526008835281842080548083018255908552938390208751600b909502019384558683015190840180546001600160a01b0319166001600160a01b039092169190911790558501518051869550929361072693908501929190910190611f7c565b5060608201518051610742916003840191602090910190611f7c565b506080820151805161075e916004840191602090910190611f7c565b5060a0820151600582015560c0820151600682015560e0820151600782015561010082015160088201556101208201516009820155610140820151600a8201805460ff191660018360048111156107b7576107b761230c565b021790555050506001600460000160008282546107d4919061249b565b90915550506002805433916000805160206125a5833981519152919060006107fb836124b3565b9091555060408051918252606060208301819052600f908301526e141493d29150d50810d49150551151608a1b6080830152429082015260a00160405180910390a25060019695505050505050565b6000546001600160a01b0316331461089a5760405162461bcd60e51b81526020600482015260136024820152724f776e6572207265736572766564206f6e6c7960681b6044820152606401610427565b600155565b600080600783815481106108b5576108b56124ce565b60009182526020909120600a600b90920201015460ff1660048111156108dd576108dd61230c565b146109255760405162461bcd60e51b8152602060048201526018602482015277141c9bda9958dd081b9bc81b1bdb99d95c881bdc195b995960421b6044820152606401610427565b60078281548110610938576109386124ce565b60009182526020909120600b90910201600101546001600160a01b031633146109735760405162461bcd60e51b8152600401610427906124e4565b600360078381548110610988576109886124ce565b60009182526020909120600a600b9092020101805460ff191660018360048111156109b5576109b561230c565b02179055506109c382611bbf565b60408051838152606060208201819052600f908201526e141493d29150d50811115311551151608a1b60808201524281830152905133916000805160206125a5833981519152919081900360a00190a2506001919050565b600b8181548110610a2b57600080fd5b60009182526020909120600390910201805460018201805491935090610a5090612511565b80601f0160208091040260200160405190810160405280929190818152602001828054610a7c90612511565b8015610ac95780601f10610a9e57610100808354040283529160200191610ac9565b820191906000526020600020905b815481529060010190602001808311610aac57829003601f168201915b5050505050908060020154905083565b6000818152600a602052604090205460ff16610b305760405162461bcd60e51b8152602060048201526016602482015275141c9bd91d58dd08191bd95cc81b9bdd08195e1a5cdd60521b6044820152606401610427565b6000600b8281548110610b4557610b456124ce565b906000526020600020906003020190508060020154341015610bba5760405162461bcd60e51b815260206004820152602860248201527f496e73756666696369656e742066756e647320746f20627579207468652070726044820152676f6475637421212160c01b6064820152608401610427565b600080546040516001600160a01b03909116913480156108fc02929091818181858888f19350505050158015610bf4573d6000803e3d6000fd5b506040805183815260606020820181905260119082015270141493d11550d50814155490d21054d151607a1b60808201524281830152905133916000805160206125a5833981519152919081900360a00190a25050565b600060078681548110610c6057610c606124ce565b60009182526020909120600b90910201600101546001600160a01b03163314610c9b5760405162461bcd60e51b8152600401610427906124e4565b6000855111610ce45760405162461bcd60e51b81526020600482015260156024820152745469746c652063616e6e6f7420626520656d70747960581b6044820152606401610427565b6000845111610d355760405162461bcd60e51b815260206004820152601b60248201527f4465736372697074696f6e2063616e6e6f7420626520656d70747900000000006044820152606401610427565b6000835111610d815760405162461bcd60e51b8152602060048201526018602482015277496d61676555524c2063616e6e6f7420626520656d70747960401b6044820152606401610427565b8460078781548110610d9557610d956124ce565b90600052602060002090600b02016002019080519060200190610db9929190611f7c565b508360078781548110610dce57610dce6124ce565b90600052602060002090600b02016003019080519060200190610df2929190611f7c565b508260078781548110610e0757610e076124ce565b90600052602060002090600b02016004019080519060200190610e2b929190611f7c565b508160078781548110610e4057610e406124ce565b90600052602060002090600b020160080181905550336001600160a01b03166000805160206125a58339815191528742604051610eae929190918252606060208301819052600f908301526e141493d29150d50815541110551151608a1b6080830152604082015260a00190565b60405180910390a250600195945050505050565b6000803411610f135760405162461bcd60e51b815260206004820152601f60248201527f4574686572206d7573742062652067726561746572207468616e207a65726f006044820152606401610427565b6000828152600a602052604090205460ff16610f655760405162461bcd60e51b8152602060048201526011602482015270141c9bda9958dd081b9bdd08199bdd5b99607a1b6044820152606401610427565b600060078381548110610f7a57610f7a6124ce565b60009182526020909120600a600b90920201015460ff166004811115610fa257610fa261230c565b14610fea5760405162461bcd60e51b8152602060048201526018602482015277141c9bda9958dd081b9bc81b1bdb99d95c881bdc195b995960421b6044820152606401610427565b600160046001016000828254611000919061249b565b90915550506006805434919060009061101a90849061249b565b925050819055503460078381548110611035576110356124ce565b90600052602060002090600b02016006016000828254611055919061249b565b92505081905550600160078381548110611071576110716124ce565b90600052602060002090600b02016009016000828254611091919061249b565b9091555050600082815260096020908152604080832081516080808201845233808352348387019081524284870181815260608087018b8152885460018082018b55998d529b8b902097516004909c0290970180546001600160a01b0319166001600160a01b03909c169b909b178b559251968a01969096559451600289015592516003909701805460ff1916971515979097179096558351888152948501829052600e918501919091526d141493d29150d508109050d2d15160921b90840152908201526000805160206125a58339815191529060a00160405180910390a260078281548110611184576111846124ce565b90600052602060002090600b020160050154600783815481106111a9576111a96124ce565b90600052602060002090600b02016006015410611254576001600783815481106111d5576111d56124ce565b60009182526020909120600a600b9092020101805460ff191660018360048111156112025761120261230c565b02179055506007828154811061121a5761121a6124ce565b90600052602060002090600b0201600601546003600082825461123d919061249b565b9091555061124c905082611d2d565b506001919050565b60078281548110611267576112676124ce565b90600052602060002090600b020160080154421061124c57600260078381548110611294576112946124ce565b60009182526020909120600a600b9092020101805460ff191660018360048111156112c1576112c161230c565b021790555061124c82611bbf565b60006002600783815481106112e6576112e66124ce565b60009182526020909120600a600b90920201015460ff16600481111561130e5761130e61230c565b141580611356575060036007838154811061132b5761132b6124ce565b60009182526020909120600a600b90920201015460ff1660048111156113535761135361230c565b14155b6113b15760405162461bcd60e51b815260206004820152602660248201527f50726f6a656374206e6f74206d61726b656420617320726576657274206f722060448201526564656c65746560d01b6064820152608401610427565b600260078381548110611294576112946124ce565b60006001600783815481106113dd576113dd6124ce565b60009182526020909120600a600b90920201015460ff1660048111156114055761140561230c565b146114495760405162461bcd60e51b8152602060048201526014602482015273141c9bda9958dd081b9bdd081054141493d5915160621b6044820152606401610427565b6007828154811061145c5761145c6124ce565b60009182526020909120600b90910201600101546001600160a01b031633148061149057506000546001600160a01b031633145b6114ac5760405162461bcd60e51b8152600401610427906124e4565b61124c82611d2d565b6060600080600b84815481106114cd576114cd6124ce565b90600052602060002090600302016040518060600160405290816000820154815260200160018201805461150090612511565b80601f016020809104026020016040519081016040528092919081815260200182805461152c90612511565b80156115795780601f1061154e57610100808354040283529160200191611579565b820191906000526020600020905b81548152906001019060200180831161155c57829003601f168201915b505050505081526020016002820154815250509050806020015181604001519250925050915091565b606060096000838152602001908152602001600020805480602002602001604051908101604052809291908181526020016000905b82821015611639576000848152602090819020604080516080810182526004860290920180546001600160a01b03168352600180820154848601526002820154928401929092526003015460ff161515606083015290835290920191016115d7565b505050509050919050565b60606007805480602002602001604051908101604052809291908181526020016000905b828210156118d65760008481526020908190206040805161016081018252600b86029092018054835260018101546001600160a01b031693830193909352600283018054929392918401916116bc90612511565b80601f01602080910402602001604051908101604052809291908181526020018280546116e890612511565b80156117355780601f1061170a57610100808354040283529160200191611735565b820191906000526020600020905b81548152906001019060200180831161171857829003601f168201915b5050505050815260200160038201805461174e90612511565b80601f016020809104026020016040519081016040528092919081815260200182805461177a90612511565b80156117c75780601f1061179c576101008083540402835291602001916117c7565b820191906000526020600020905b8154815290600101906020018083116117aa57829003601f168201915b505050505081526020016004820180546117e090612511565b80601f016020809104026020016040519081016040528092919081815260200182805461180c90612511565b80156118595780601f1061182e57610100808354040283529160200191611859565b820191906000526020600020905b81548152906001019060200180831161183c57829003601f168201915b505050918352505060058201546020820152600682015460408201526007820154606082015260088201546080820152600982015460a0820152600a82015460c09091019060ff1660048111156118b2576118b261230c565b60048111156118c3576118c361230c565b8152505081526020019060010190611668565b50505050905090565b6118e7611f09565b6000828152600a602052604090205460ff166119395760405162461bcd60e51b8152602060048201526011602482015270141c9bda9958dd081b9bdd08199bdd5b99607a1b6044820152606401610427565b6007828154811061194c5761194c6124ce565b90600052602060002090600b020160405180610160016040529081600082015481526020016001820160009054906101000a90046001600160a01b03166001600160a01b03166001600160a01b031681526020016002820180546119af90612511565b80601f01602080910402602001604051908101604052809291908181526020018280546119db90612511565b8015611a285780601f106119fd57610100808354040283529160200191611a28565b820191906000526020600020905b815481529060010190602001808311611a0b57829003601f168201915b50505050508152602001600382018054611a4190612511565b80601f0160208091040260200160405190810160405280929190818152602001828054611a6d90612511565b8015611aba5780601f10611a8f57610100808354040283529160200191611aba565b820191906000526020600020905b815481529060010190602001808311611a9d57829003601f168201915b50505050508152602001600482018054611ad390612511565b80601f0160208091040260200160405190810160405280929190818152602001828054611aff90612511565b8015611b4c5780601f10611b2157610100808354040283529160200191611b4c565b820191906000526020600020905b815481529060010190602001808311611b2f57829003601f168201915b505050918352505060058201546020820152600682015460408201526007820154606082015260088201546080820152600982015460a0820152600a82015460c09091019060ff166004811115611ba557611ba561230c565b6004811115611bb657611bb661230c565b90525092915050565b60005b600082815260096020526040902054811015611d29576000828152600960205260408120805483908110611bf857611bf86124ce565b6000918252602080832060049092029091015485835260099091526040822080546001600160a01b0390921693509084908110611c3757611c376124ce565b90600052602060002090600402016001015490506001600960008681526020019081526020016000208481548110611c7157611c716124ce565b906000526020600020906004020160030160006101000a81548160ff02191690831515021790555042600960008681526020019081526020016000208481548110611cbe57611cbe6124ce565b906000526020600020906004020160020181905550611cdd8282611ea4565b600160046001016000828254611cf3919061254c565b909155505060068054829190600090611d0d90849061254c565b9250508190555050508080611d21906124b3565b915050611bc2565b5050565b600060078281548110611d4257611d426124ce565b90600052602060002090600b02016006015490506000606460015483611d689190612563565b611d729190612582565b9050600460078481548110611d8957611d896124ce565b60009182526020909120600a600b9092020101805460ff19166001836004811115611db657611db661230c565b0217905550611dfd60078481548110611dd157611dd16124ce565b600091825260209091206001600b9092020101546001600160a01b0316611df8838561254c565b611ea4565b600054611e13906001600160a01b031682611ea4565b60078381548110611e2657611e266124ce565b90600052602060002090600b02016006015460036000828254611e49919061254c565b9091555050604080518481526060602082018190526010908201526f141493d29150d508141052510813d55560821b60808201524281830152905133916000805160206125a5833981519152919081900360a00190a2505050565b6000826001600160a01b03168260405160006040518083038185875af1925050503d8060008114611ef1576040519150601f19603f3d011682016040523d82523d6000602084013e611ef6565b606091505b5050905080611f0457600080fd5b505050565b6040518061016001604052806000815260200160006001600160a01b03168152602001606081526020016060815260200160608152602001600081526020016000815260200160008152602001600081526020016000815260200160006004811115611f7757611f7761230c565b905290565b828054611f8890612511565b90600052602060002090601f016020900481019282611faa5760008555611ff0565b82601f10611fc357805160ff1916838001178555611ff0565b82800160010185558215611ff0579182015b82811115611ff0578251825591602001919060010190611fd5565b50611ffc929150612000565b5090565b5b80821115611ffc5760008155600101612001565b634e487b7160e01b600052604160045260246000fd5b600082601f83011261203c57600080fd5b813567ffffffffffffffff8082111561205757612057612015565b604051601f8301601f19908116603f0116810190828211818310171561207f5761207f612015565b8160405283815286602085880101111561209857600080fd5b836020870160208301376000602085830101528094505050505092915050565b600080600080600060a086880312156120d057600080fd5b853567ffffffffffffffff808211156120e857600080fd5b6120f489838a0161202b565b9650602088013591508082111561210a57600080fd5b61211689838a0161202b565b9550604088013591508082111561212c57600080fd5b506121398882890161202b565b9598949750949560608101359550608001359392505050565b60006020828403121561216457600080fd5b5035919050565b6000815180845260005b8181101561219157602081850181015186830182015201612175565b818111156121a3576000602083870101525b50601f01601f19169290920160200192915050565b8381526060602082015260006121d1606083018561216b565b9050826040830152949350505050565b600080600080600060a086880312156121f957600080fd5b85359450602086013567ffffffffffffffff8082111561221857600080fd5b61222489838a0161202b565b9550604088013591508082111561223a57600080fd5b61224689838a0161202b565b9450606088013591508082111561225c57600080fd5b506122698882890161202b565b95989497509295608001359392505050565b60408152600061228e604083018561216b565b90508260208301529392505050565b602080825282518282018190526000919060409081850190868401855b828110156122ff57815180516001600160a01b0316855286810151878601528581015186860152606090810151151590850152608090930192908501906001016122ba565b5091979650505050505050565b634e487b7160e01b600052602160045260246000fd5b6005811061234057634e487b7160e01b600052602160045260246000fd5b9052565b600061016082518452602083015161236760208601826001600160a01b03169052565b50604083015181604086015261237f8286018261216b565b91505060608301518482036060860152612399828261216b565b915050608083015184820360808601526123b3828261216b565b91505060a083015160a085015260c083015160c085015260e083015160e0850152610100808401518186015250610120808401518186015250610140808401516123ff82870182612322565b5090949350505050565b6000602080830181845280855180835260408601915060408160051b870101925083870160005b8281101561245e57603f1988860301845261244c858351612344565b94509285019290850190600101612430565b5092979650505050505050565b60208152600061247e6020830184612344565b9392505050565b634e487b7160e01b600052601160045260246000fd5b600082198211156124ae576124ae612485565b500190565b60006000198214156124c7576124c7612485565b5060010190565b634e487b7160e01b600052603260045260246000fd5b602080825260139082015272556e617574686f72697a656420456e7469747960681b604082015260600190565b600181811c9082168061252557607f821691505b6020821081141561254657634e487b7160e01b600052602260045260246000fd5b50919050565b60008282101561255e5761255e612485565b500390565b600081600019048311821515161561257d5761257d612485565b500290565b60008261259f57634e487b7160e01b600052601260045260246000fd5b50049056feaee8e5d3bbb2f71a951b5632cee20f7ac487b9f8ab4f66a236f7694b13af7c6aa264697066735822122020e3be64521895a5057ff223f7c910f54cc3b8238f56121f04c7767ef8124e0964736f6c634300080b00330175b7a638427703f0dbe7bb9bbf987a2551717b34e79f33b5b1008d1fa01db90175b7a638427703f0dbe7bb9bbf987a2551717b34e79f33b5b1008d1fa01dba",
  "linkReferences": {},
  "deployedLinkReferences": {}
}